:04000000C4EF7EF0DB
:10FD88000001A6EF7FF08D8200D08D92120094982A
:10FD9800828682881200016E8D8401C08CFFC7ECB8
:10FDA8007EF0210EE82EFED700F0120082868288AF
:10FDB800060EE82EFED700D08298060EE82EFED753
:10FDC80000D0120082868298060EE82EFED700D058
:10FDD8008288060EE82EFED700D01200026E8D949F
:10FDE80002C08CFFC7EC7EF0060E016E300EE82EC6
:10FDF800FED7012EFCD700D01200300EF2EC7EF0B8
:10FE0800300EF2EC7EF0300EF2EC7EF0380EF2ECB2
:10FE18007EF0080EF2EC7EF0010EF2EC7EF0060E9B
:10FE2800F2EC7EF00C0EF2EC7EF01200046E82967C
:10FE3800000E056E05500708026E04C003F0022A82
:10FE480028EF7FF0D8900332022E26EF7FF0010EC4
:10FE58000316033A82500318EF0B0318826E82864A
:10FE6800060EE82EFED700D08296052A070E0564F6
:10FE780040EF7FF042EF7FF01EEF7FF08288060EA2
:10FE8800E82EFED700D08286060EE82EFED700D0D8
:10FE9800829694888286060EE82EFED700D0000E41
:10FEA80082B8010E016E8296060EE82EFED700D0AB
:10FEB800949801501200036E000E046E8296948886
:10FEC8008288000E056E8286060EE82EFED700D0C8
:10FED80005500708016E82B874EF7FF078EF7FF065
:10FEE800026A022A79EF7FF0026A012A7EEF7FF028
:10FEF800D8900236012E7CEF7FF0025004128296D1
:10FF0800052A070E05648BEF7FF08DEF7FF067EF12
:10FF18007FF094980350D8B494EF7FF096EF7FF079
:10FF280099EF7FF082989AEF7FF08288060EE82E8C
:10FF3800FED700D08286060EE82EFED700D0829625
:10FF480004501200700ED3120F0EC112070EB41215
:10FF5800E70E946E000E956E000E966E000E8B6E78
:10FF6800000E8C6E000E8D6E01EC7FF0CBEC7EF0F7
:10FF7800DAEC7EF008C001F0A00E1AEC7FF0086EF3
:10FF880008C001F0000E1AEC7FF0086E0850D8A4E3
:10FF9800D0EF7FF0D2EF7FF0D8EF7FF008C001F00C
:10FFA800410E1AEC7FF0086EE6EC7EF01A0E066E33
:10FFB800F80EE82EFED7062EFCD700D0DAEC7EF03D
:10FFC80008C001F0A10E1AEC7FF0086E08C001F01D
:10FFD800000E1AEC7FF0086E000E5FEC7FF0076EE3
:10FFE800E6EC7EF0010EF2EC7EF00750CFEC7EF0EE
:08FFF800FCEF7FF000EF00F0C8
:020000040030CA
:08000000FF08191EFF8181FFBA
:00000001FF
