:04000000BBEF7DF0E5
:10FB2A008D8200D08D9212000000001F000000009C
:10FB3A0000040E1B1B0A0400016E8D8401C08CFF99
:10FB4A0095EC7DF0210EE82EFED700F01200026E31
:10FB5A008D9402C08CFF95EC7DF0060E016E300E7E
:10FB6A00E82EFED7012EFCD700D01200320EF66E18
:10FB7A00FB0EF76E000EF86E00EE1CF010EE10F0A1
:10FB8A000900F5CFEEFFE550E150FAE10001F3EF8D
:10FB9A007DF0056E0550080DF350400FACEC7DF07A
:10FBAA00000E076E000E066E06500324D96E07502B
:10FBBA000420DA6EDF50A1EC7DF0064A072A07BE60
:10FBCA00F0EF7DF0075009E1080E065CD8A0F0EFCF
:10FBDA007DF0F2EF7DF0D9EF7DF01200700ED312B6
:10FBEA000F0EC112070EB412000E926E000E936E23
:10FBFA00000E946E000E956E000E966E000E896EC3
:10FC0A00000E8A6E000E8B6E000E8C6E000E8D6ECC
:10FC1A00000E1B6E110E1A6E20EE24F010EE0AF082
:10FC2A00070EDBCFE3FFE806FCE220EE1CF010EE45
:10FC3A0012F0070EDBCFE3FFE806FCE2300EACEC75
:10FC4A007DF0300EACEC7DF0300EACEC7DF0380E71
:10FC5A00ACEC7DF0080EACEC7DF0010EACEC7DF066
:10FC6A00060EACEC7DF0380EACEC7DF00F0EACEC71
:10FC7A007DF0060EACEC7DF0040E096E0C0E086EDB
:10FC8A00340EE82EFED7082EFCD7092EFAD7480ED6
:10FC9A00A1EC7DF04E0E086EEB0EE82EFED7082E74
:10FCAA00FCD700F0650EA1EC7DF04E0E086EEB0E4F
:10FCBA00E82EFED7082EFCD700F06C0EA1EC7DF0E2
:10FCCA004E0E086EEB0EE82EFED7082EFCD700F07B
:10FCDA006C0EA1EC7DF04E0E086EEB0EE82EFED7F0
:10FCEA00082EFCD700F06F0EA1EC7DF0200EA1ECDF
:10FCFA007DF04E0E086EEB0EE82EFED7082EFCD7CE
:10FD0A0000F0430EA1EC7DF04E0E086EEB0EE82ECD
:10FD1A00FED7082EFCD700F0560EA1EC7DF04E0E51
:10FD2A00086EEB0EE82EFED7082EFCD700F0550E13
:10FD3A00A1EC7DF04E0E086EEB0EE82EFED7082ED3
:10FD4A00FCD700F0540EA1EC7DF04E0E086EEB0EBF
:10FD5A00E82EFED7082EFCD700F0210EA1EC7DF08C
:10FD6A000B0E096E260E086E5E0EE82EFED7082EC2
:10FD7A00FCD7092EFAD7CDEF7EF01C0EACEC7DF045
:10FD8A00820E086EDE0EE82EFED7082EFCD71B2A3E
:10FD9A001A501B5CD8A0D4EF7EF0D6EF7EF0C2EFEB
:10FDAA007EF0010EACEC7DF0020EACEC7DF0060E9E
:10FDBA00096E130E086EAE0EE82EFED7082EFCD77B
:10FDCA00092EFAD74C0EA1EC7DF0650EA1EC7DF060
:10FDDA00740EA1EC7DF0730EA1EC7DF0200EA1EC67
:10FDEA007DF0770EA1EC7DF0720EA1EC7DF0690E2C
:10FDFA00A1EC7DF0740EA1EC7DF0650EA1EC7DF016
:10FE0A00200EA1EC7DF06F0EA1EC7DF06E0EA1EC40
:10FE1A007DF0200EA1EC7DF0040E096E0C0E086E2A
:10FE2A00340EE82EFED7082EFCD7092EFAD7C00EBC
:10FE3A00ACEC7DF0740EA1EC7DF0680EA1EC7DF0C7
:10FE4A00650EA1EC7DF0200EA1EC7DF0730EA1EC05
:10FE5A007DF0650EA1EC7DF0630EA1EC7DF06F0ED6
:10FE6A00A1EC7DF06E0EA1EC7DF0640EA1EC7DF0AC
:10FE7A00200EA1EC7DF06C0EA1EC7DF0690EA1ECD8
:10FE8A007DF06E0EA1EC7DF0650EA1EC7DF00B0EFF
:10FE9A00096E260E086E5E0EE82EFED7082EFCD7D7
:10FEAA00092EFAD7020EACEC7DF0000E1B6E6EEF37
:10FEBA007FF0180EACEC7DF0020E096E040E086E8F
:10FECA00BA0EE82EFED7082EFCD7092EFAD700D094
:10FEDA001B2A1A501B5CD8A075EF7FF077EF7FF0D2
:10FEEA005EEF7FF0010EACEC7DF0020EACEC7DF023
:10FEFA00030E096E080E086E770EE82EFED7082E3E
:10FF0A00FCD7092EFAD700F00A0E036E000E046E13
:10FF1A00000ECEEC7DF0120E036E000E046E010E82
:10FF2A00CEEC7DF0800EACEC7DF0000EA1EC7DF005
:10FF3A00020E096E040E086EBA0EE82EFED7082EBF
:10FF4A00FCD7092EFAD700D0000EA1EC7DF0060EE0
:10FF5A00096E130E086EAE0EE82EFED7082EFCD7D9
:10FF6A00092EFAD7C00EACEC7DF0010EA1EC7DF0A3
:10FF7A00010EA1EC7DF0060E096E130E086EAE0E90
:10FF8A00E82EFED7082EFCD7092EFAD7140EACECB1
:10FF9A007DF0500EA1EC7DF04E0E086EEB0EE82EB1
:10FFAA00FED7082EFCD700F0450EA1EC7DF04E0ED0
:10FFBA00086EEB0EE82EFED7082EFCD700F0500E86
:10FFCA00A1EC7DF04E0E086EEB0EE82EFED7082E41
:10FFDA00FCD700F0450EA1EC7DF0150E096E4B0E14
:10FFEA00086EBE0EE82EFED7082EFCD7092EFAD7C9
:06FFFA0000D000EF00F052
:020000040030CA
:08000000FF08191EFF8181FFBA
:00000001FF
