:040000006BEF7EF034
:10FCC0008D8200D08D921200010EC26E0E0EC16E9A
:10FCD0008B0EC06E120000EE13F0090EEE6AE806FD
:10FCE000FDE100013FEF7FF0016E8D8401C08CFFCC
:10FCF00060EC7EF0210EE82EFED700F01200C282EA
:10FD0000C2B285EF7EF087EF7EF080EF7EF0C450C8
:10FD1000036EC350016E03C002F01200026E8D9498
:10FD200002C08CFF60EC7EF0060E016E300EE82EF5
:10FD3000FED7012EFCD700D01200300E8EEC7EF0E4
:10FD4000300E8EEC7EF0300E8EEC7EF0380E8EECA7
:10FD50007EF0080E8EEC7EF0010E8EEC7EF0060E2C
:10FD60008EEC7EF00C0E8EEC7EF01200000E046E17
:10FD7000C4EF7EF004500224D96E000E0320DA6E28
:10FD8000DF5074EC7EF0042A04500224D96E000E79
:10FD90000320DA6EDF50D8A4D0EF7EF0D2EF7EF0F1
:10FDA000BAEF7EF0120003500410D8B4DAEF7EF000
:10FDB000DCEF7EF000EF7FF0010E056EE4EF7EF0E9
:10FDC000D89003360436052A04AEE9EF7EF0EBEF57
:10FDD0007EF0E0EF7EF00350015C04500258D8A0A2
:10FDE000F4EF7EF0F6EF7EF0FAEF7EF00350015E66
:10FDF0000450025AD89004320332052EEBEF7EF005
:10FE000001C001F002C002F01200000E0B6E000EE5
:10FE10000A6E08500910D8B410EF7FF012EF7FF08F
:10FE20003AEF7FF0010E0C6E1AEF7FF0D890083693
:10FE300009360C2A09AE1FEF7FF021EF7FF016EF95
:10FE40007FF0D8900A360B360850065C09500758E8
:10FE5000D8A02DEF7FF02FEF7FF034EF7FF0085028
:10FE6000065E0950075A0A80D890093208320C2ED3
:10FE700021EF7FF00AC006F00BC007F01200700EF1
:10FE8000D3120F0EC112070EB4129268000E956EB7
:10FE9000000E966E000E896E000E8C6E000E8D6E3A
:10FEA0009DEC7EF064EC7EF07FEC7EF001C013F000
:10FEB00002C014F013C00DF014C00EF0150E0F6E3A
:10FEC000000E106E7DEC7FF0150E026E000E036EBC
:10FED000B6EC7EF0020E126E040E116EBA0EE82E13
:10FEE000FED7112EFCD7122EFAD700D0010E8EECC1
:10FEF0007EF054EF7FF000EF00F00DC006F00EC072
:10FF000007F0270E096E100E086E05EC7FF0065004
:10FF1000300F0FC0D9FF10C0DAFFDF6E20EE01F006
:10FF20000F50D9261050DA22270E046E100E036EE1
:10FF30000DC001F00EC002F0D3EC7EF001C006F05F
:10FF400002C007F0030E096EE80E086E05EC7FF0A4
:10FF50000650300FDF6E20EE02F00F50D926105001
:10FF6000DA22030E046EE80E036E0DC001F00EC01F
:10FF700002F0D3EC7EF001C006F002C007F0000EE4
:10FF8000096E640E086E05EC7FF00650300FDF6ED0
:10FF900020EE03F00F50D9261050DA22000E046E26
:10FFA000640E036E0DC001F00EC002F0D3EC7EF0C3
:10FFB00001C006F002C007F0000E096E0A0E086EBE
:10FFC00005EC7FF00650300FDF6E20EE04F00F508E
:10FFD000D9261050DA220DC001F00EC002F0000E3A
:10FFE000046E0A0E036ED3EC7EF00150300FDF6E0C
:10FFF00020EE05F00F50D9261050DA22DF6A1200E9
:020000040030CA
:08000000FF08191EFF8181FFBA
:00000001FF
